t=2023-11-29T11:23:28-0300 lvl=info msg=Configured api=signer "audit log"=audit.log
t=2023-11-29T11:26:50-0300 lvl=info msg=Version    api=signer type=request metadata="{\"remote\":\"NA\",\"local\":\"NA\",\"scheme\":\"ipc\",\"User-Agent\":\"\",\"Origin\":\"\"}"
t=2023-11-29T11:26:50-0300 lvl=info msg=Version    api=signer type=response data=6.1.0 error=nil
t=2023-11-29T11:28:52-0300 lvl=info msg=List       api=signer type=request  metadata="{\"remote\":\"NA\",\"local\":\"NA\",\"scheme\":\"ipc\",\"User-Agent\":\"\",\"Origin\":\"\"}"
t=2023-11-29T11:28:52-0300 lvl=info msg=List       api=signer type=response data=[]
t=2023-11-29T11:29:32-0300 lvl=info msg=List       api=signer type=request  metadata="{\"remote\":\"NA\",\"local\":\"NA\",\"scheme\":\"ipc\",\"User-Agent\":\"\",\"Origin\":\"\"}"
t=2023-11-29T11:29:32-0300 lvl=info msg=List       api=signer type=response data=[0x65BbACef21EC52B240538497441B9DfF24BF839a]
t=2023-11-29T11:29:32-0300 lvl=info msg=SignTransaction api=signer type=request  metadata="{\"remote\":\"NA\",\"local\":\"NA\",\"scheme\":\"ipc\",\"User-Agent\":\"\",\"Origin\":\"\"}" tx="{\"from\":\"0x65BbACef21EC52B240538497441B9DfF24BF839a\",\"to\":\"0x2854fA282364A80f979b2024259AEB16b9e9348C\",\"gas\":\"0x5208\",\"gasPrice\":\"0x3b9aca00\",\"maxFeePerGas\":null,\"maxPriorityFeePerGas\":null,\"value\":\"0x2710\",\"nonce\":\"0x1\",\"data\":\"0x\",\"chainId\":\"0x1d9d0d8\"}" methodSelector=<nil>
t=2023-11-29T11:29:42-0300 lvl=info msg=SignTransaction api=signer type=response data=f86901843b9aca00825208942854fa282364a80f979b2024259aeb16b9e9348c822710808403b3a1d4a01fe9f1c7ee05a43baf40237fc5b0af2ba9daf5a4fd06a3f8323ffe557c0db898a02c16ef3eaff78a3572bbc0126a9e2d3b397a4615ad1b076c60119f5b726eb5fd error=nil
time=2024-01-24T12:39:00.812-03:00 level=INFO msg=Configured api=signer "audit log"=audit.log
time=2024-01-24T12:55:41.174-03:00 level=INFO msg=Configured api=signer "audit log"=audit.log
time=2024-01-24T12:57:56.952-03:00 level=INFO msg=Configured api=signer "audit log"=audit.log
time=2024-01-24T12:59:23.574-03:00 level=INFO msg=Configured api=signer "audit log"=audit.log
time=2024-01-24T13:11:43.317-03:00 level=INFO msg=Configured api=signer "audit log"=audit.log
time=2024-01-24T13:17:36.528-03:00 level=INFO msg=Configured api=signer "audit log"=audit.log
time=2024-01-24T13:18:38.470-03:00 level=INFO msg=Configured api=signer "audit log"=audit.log
time=2024-01-24T13:23:01.882-03:00 level=INFO msg=Configured api=signer "audit log"=audit.log
time=2024-01-24T13:24:11.036-03:00 level=INFO msg=Version api=signer type=request metadata="{\"remote\":\"NA\",\"local\":\"NA\",\"scheme\":\"ipc\",\"User-Agent\":\"\",\"Origin\":\"\"}"
time=2024-01-24T13:24:11.036-03:00 level=INFO msg=Version api=signer type=response data=6.1.0 error=<nil>
time=2024-01-24T13:24:46.560-03:00 level=INFO msg=List api=signer type=request metadata="{\"remote\":\"NA\",\"local\":\"NA\",\"scheme\":\"ipc\",\"User-Agent\":\"\",\"Origin\":\"\"}"
time=2024-01-24T13:24:52.880-03:00 level=INFO msg=List api=signer type=response data=[0x65BbACef21EC52B240538497441B9DfF24BF839a]
time=2024-01-24T13:24:52.882-03:00 level=INFO msg=SignTransaction api=signer type=request metadata="{\"remote\":\"NA\",\"local\":\"NA\",\"scheme\":\"ipc\",\"User-Agent\":\"\",\"Origin\":\"\"}" tx="{\"from\":\"0x65BbACef21EC52B240538497441B9DfF24BF839a\",\"to\":\"0x2854fA282364A80f979b2024259AEB16b9e9348C\",\"gas\":\"0x5208\",\"gasPrice\":\"0x3b9aca00\",\"maxFeePerGas\":null,\"maxPriorityFeePerGas\":null,\"value\":\"0x2710\",\"nonce\":\"0x3\",\"data\":\"0x\",\"chainId\":\"0x1d9d0d8\"}" methodSelector=<nil>
time=2024-01-24T13:24:52.882-03:00 level=INFO msg=SignTransaction api=signer type=response data=<nil> error="requested chainid 31051992 does not match the configuration of the signer"
time=2024-01-24T13:25:05.561-03:00 level=INFO msg=List api=signer type=request metadata="{\"remote\":\"NA\",\"local\":\"NA\",\"scheme\":\"ipc\",\"User-Agent\":\"\",\"Origin\":\"\"}"
time=2024-01-24T13:25:08.208-03:00 level=INFO msg=List api=signer type=response data=[0x65BbACef21EC52B240538497441B9DfF24BF839a]
time=2024-01-24T13:25:08.210-03:00 level=INFO msg=SignTransaction api=signer type=request metadata="{\"remote\":\"NA\",\"local\":\"NA\",\"scheme\":\"ipc\",\"User-Agent\":\"\",\"Origin\":\"\"}" tx="{\"from\":\"0x65BbACef21EC52B240538497441B9DfF24BF839a\",\"to\":\"0x2854fA282364A80f979b2024259AEB16b9e9348C\",\"gas\":\"0x5208\",\"gasPrice\":\"0x3b9aca00\",\"maxFeePerGas\":null,\"maxPriorityFeePerGas\":null,\"value\":\"0x2710\",\"nonce\":\"0x3\",\"data\":\"0x\",\"chainId\":\"0x1d9d0d8\"}" methodSelector=<nil>
time=2024-01-24T13:25:08.210-03:00 level=INFO msg=SignTransaction api=signer type=response data=<nil> error="requested chainid 31051992 does not match the configuration of the signer"
time=2024-01-24T13:25:17.737-03:00 level=INFO msg=List api=signer type=request metadata="{\"remote\":\"NA\",\"local\":\"NA\",\"scheme\":\"ipc\",\"User-Agent\":\"\",\"Origin\":\"\"}"
time=2024-01-24T13:25:20.993-03:00 level=INFO msg=List api=signer type=response data=[0x65BbACef21EC52B240538497441B9DfF24BF839a]
time=2024-01-24T13:25:20.994-03:00 level=INFO msg=SignTransaction api=signer type=request metadata="{\"remote\":\"NA\",\"local\":\"NA\",\"scheme\":\"ipc\",\"User-Agent\":\"\",\"Origin\":\"\"}" tx="{\"from\":\"0x65BbACef21EC52B240538497441B9DfF24BF839a\",\"to\":\"0x2854fA282364A80f979b2024259AEB16b9e9348C\",\"gas\":\"0x5208\",\"gasPrice\":\"0x3b9aca00\",\"maxFeePerGas\":null,\"maxPriorityFeePerGas\":null,\"value\":\"0x2710\",\"nonce\":\"0x3\",\"data\":\"0x\",\"chainId\":\"0x1d9d0d8\"}" methodSelector=<nil>
time=2024-01-24T13:25:20.994-03:00 level=INFO msg=SignTransaction api=signer type=response data=<nil> error="requested chainid 31051992 does not match the configuration of the signer"
time=2024-01-24T13:32:11.066-03:00 level=INFO msg=Configured api=signer "audit log"=audit.log
time=2024-01-24T13:32:26.272-03:00 level=INFO msg=Configured api=signer "audit log"=audit.log
time=2024-01-24T13:33:13.806-03:00 level=INFO msg=Version api=signer type=request metadata="{\"remote\":\"NA\",\"local\":\"NA\",\"scheme\":\"ipc\",\"User-Agent\":\"\",\"Origin\":\"\"}"
time=2024-01-24T13:33:13.806-03:00 level=INFO msg=Version api=signer type=response data=6.1.0 error=<nil>
time=2024-01-24T13:34:05.035-03:00 level=INFO msg=List api=signer type=request metadata="{\"remote\":\"NA\",\"local\":\"NA\",\"scheme\":\"ipc\",\"User-Agent\":\"\",\"Origin\":\"\"}"
time=2024-01-24T13:34:08.202-03:00 level=INFO msg=List api=signer type=response data=[]
time=2024-01-24T13:34:13.083-03:00 level=INFO msg=List api=signer type=request metadata="{\"remote\":\"NA\",\"local\":\"NA\",\"scheme\":\"ipc\",\"User-Agent\":\"\",\"Origin\":\"\"}"
time=2024-01-24T13:34:15.467-03:00 level=INFO msg=List api=signer type=response data=[0x65BbACef21EC52B240538497441B9DfF24BF839a]
time=2024-01-24T13:34:15.469-03:00 level=INFO msg=SignTransaction api=signer type=request metadata="{\"remote\":\"NA\",\"local\":\"NA\",\"scheme\":\"ipc\",\"User-Agent\":\"\",\"Origin\":\"\"}" tx="{\"from\":\"0x65BbACef21EC52B240538497441B9DfF24BF839a\",\"to\":\"0x2854fA282364A80f979b2024259AEB16b9e9348C\",\"gas\":\"0x5208\",\"gasPrice\":\"0x3b9aca00\",\"maxFeePerGas\":null,\"maxPriorityFeePerGas\":null,\"value\":\"0x2710\",\"nonce\":\"0x3\",\"data\":\"0x\",\"chainId\":\"0x1d9d0d8\"}" methodSelector=<nil>
time=2024-01-24T13:34:22.761-03:00 level=INFO msg=SignTransaction api=signer type=response data=f86903843b9aca00825208942854fa282364a80f979b2024259aeb16b9e9348c822710808403b3a1d4a004f595f8faaa953de84d61fffad5d68ee9873dfa67fe92c11a02404e7aa630cca03427b246e55f91f6d8c46f084f49d3b5007aff83d7d88b9a666263973b3b03d0 error=<nil>
time=2024-01-24T13:34:37.468-03:00 level=INFO msg=List api=signer type=request metadata="{\"remote\":\"NA\",\"local\":\"NA\",\"scheme\":\"ipc\",\"User-Agent\":\"\",\"Origin\":\"\"}"
time=2024-01-24T13:34:40.227-03:00 level=INFO msg=List api=signer type=response data=[0x65BbACef21EC52B240538497441B9DfF24BF839a]
time=2024-01-24T13:34:40.228-03:00 level=INFO msg=SignTransaction api=signer type=request metadata="{\"remote\":\"NA\",\"local\":\"NA\",\"scheme\":\"ipc\",\"User-Agent\":\"\",\"Origin\":\"\"}" tx="{\"from\":\"0x65BbACef21EC52B240538497441B9DfF24BF839a\",\"to\":\"0x2854fA282364A80f979b2024259AEB16b9e9348C\",\"gas\":\"0x5208\",\"gasPrice\":\"0x3b9aca00\",\"maxFeePerGas\":null,\"maxPriorityFeePerGas\":null,\"value\":\"0x2710\",\"nonce\":\"0x4\",\"data\":\"0x\",\"chainId\":\"0x1d9d0d8\"}" methodSelector=<nil>
time=2024-01-24T13:35:19.530-03:00 level=INFO msg=Configured api=signer "audit log"=audit.log
time=2024-01-24T13:35:30.401-03:00 level=INFO msg=Version api=signer type=request metadata="{\"remote\":\"NA\",\"local\":\"NA\",\"scheme\":\"ipc\",\"User-Agent\":\"\",\"Origin\":\"\"}"
time=2024-01-24T13:35:30.401-03:00 level=INFO msg=Version api=signer type=response data=6.1.0 error=<nil>
time=2024-01-24T13:35:44.757-03:00 level=INFO msg=List api=signer type=request metadata="{\"remote\":\"NA\",\"local\":\"NA\",\"scheme\":\"ipc\",\"User-Agent\":\"\",\"Origin\":\"\"}"
time=2024-01-24T13:35:53.925-03:00 level=INFO msg=List api=signer type=response data=[0x65BbACef21EC52B240538497441B9DfF24BF839a]
time=2024-01-24T13:35:53.926-03:00 level=INFO msg=SignTransaction api=signer type=request metadata="{\"remote\":\"NA\",\"local\":\"NA\",\"scheme\":\"ipc\",\"User-Agent\":\"\",\"Origin\":\"\"}" tx="{\"from\":\"0x65BbACef21EC52B240538497441B9DfF24BF839a\",\"to\":\"0x2854fA282364A80f979b2024259AEB16b9e9348C\",\"gas\":\"0x5208\",\"gasPrice\":\"0x3b9aca00\",\"maxFeePerGas\":null,\"maxPriorityFeePerGas\":null,\"value\":\"0x2710\",\"nonce\":\"0x4\",\"data\":\"0x\",\"chainId\":\"0x1d9d0d8\"}" methodSelector=<nil>
time=2024-01-24T13:37:04.599-03:00 level=INFO msg=Configured api=signer "audit log"=audit.log
time=2024-01-24T13:37:13.673-03:00 level=INFO msg=Version api=signer type=request metadata="{\"remote\":\"NA\",\"local\":\"NA\",\"scheme\":\"ipc\",\"User-Agent\":\"\",\"Origin\":\"\"}"
time=2024-01-24T13:37:13.673-03:00 level=INFO msg=Version api=signer type=response data=6.1.0 error=<nil>
time=2024-01-24T13:38:00.255-03:00 level=INFO msg=List api=signer type=request metadata="{\"remote\":\"NA\",\"local\":\"NA\",\"scheme\":\"ipc\",\"User-Agent\":\"\",\"Origin\":\"\"}"
time=2024-01-24T13:38:10.111-03:00 level=INFO msg=List api=signer type=response data=[0x65BbACef21EC52B240538497441B9DfF24BF839a]
time=2024-01-24T13:38:10.113-03:00 level=INFO msg=SignTransaction api=signer type=request metadata="{\"remote\":\"NA\",\"local\":\"NA\",\"scheme\":\"ipc\",\"User-Agent\":\"\",\"Origin\":\"\"}" tx="{\"from\":\"0x65BbACef21EC52B240538497441B9DfF24BF839a\",\"to\":\"0x2854fA282364A80f979b2024259AEB16b9e9348C\",\"gas\":\"0x5208\",\"gasPrice\":\"0x3b9aca00\",\"maxFeePerGas\":null,\"maxPriorityFeePerGas\":null,\"value\":\"0x2710\",\"nonce\":\"0x4\",\"data\":\"0x\",\"chainId\":\"0x1d9d0d8\"}" methodSelector=<nil>
time=2024-01-24T13:40:39.192-03:00 level=INFO msg=Configured api=signer "audit log"=audit.log
time=2024-01-24T13:40:43.210-03:00 level=INFO msg=List api=signer type=request metadata="{\"remote\":\"NA\",\"local\":\"NA\",\"scheme\":\"ipc\",\"User-Agent\":\"\",\"Origin\":\"\"}"
time=2024-01-24T13:40:45.946-03:00 level=INFO msg=List api=signer type=response data=[0x65BbACef21EC52B240538497441B9DfF24BF839a]
time=2024-01-24T13:40:45.947-03:00 level=INFO msg=SignTransaction api=signer type=request metadata="{\"remote\":\"NA\",\"local\":\"NA\",\"scheme\":\"ipc\",\"User-Agent\":\"\",\"Origin\":\"\"}" tx="{\"from\":\"0x65BbACef21EC52B240538497441B9DfF24BF839a\",\"to\":\"0x2854fA282364A80f979b2024259AEB16b9e9348C\",\"gas\":\"0x5208\",\"gasPrice\":\"0x3b9aca00\",\"maxFeePerGas\":null,\"maxPriorityFeePerGas\":null,\"value\":\"0x2710\",\"nonce\":\"0x4\",\"data\":\"0x\",\"chainId\":\"0x1d9d0d8\"}" methodSelector=<nil>
time=2024-01-24T13:40:47.884-03:00 level=INFO msg=SignTransaction api=signer type=response data=<nil> error="could not decrypt key with given password"
time=2024-01-24T13:42:07.692-03:00 level=INFO msg=List api=signer type=request metadata="{\"remote\":\"NA\",\"local\":\"NA\",\"scheme\":\"ipc\",\"User-Agent\":\"\",\"Origin\":\"\"}"
time=2024-01-24T13:42:09.931-03:00 level=INFO msg=List api=signer type=response data=[0x65BbACef21EC52B240538497441B9DfF24BF839a]
time=2024-01-24T13:42:09.932-03:00 level=INFO msg=SignTransaction api=signer type=request metadata="{\"remote\":\"NA\",\"local\":\"NA\",\"scheme\":\"ipc\",\"User-Agent\":\"\",\"Origin\":\"\"}" tx="{\"from\":\"0x65BbACef21EC52B240538497441B9DfF24BF839a\",\"to\":\"0x2854fA282364A80f979b2024259AEB16b9e9348C\",\"gas\":\"0x5208\",\"gasPrice\":\"0x3b9aca00\",\"maxFeePerGas\":null,\"maxPriorityFeePerGas\":null,\"value\":\"0x2710\",\"nonce\":\"0x4\",\"data\":\"0x\",\"chainId\":\"0x1d9d0d8\"}" methodSelector=<nil>
time=2024-01-24T13:43:20.269-03:00 level=INFO msg=Configured api=signer "audit log"=audit.log
time=2024-01-24T13:43:47.326-03:00 level=INFO msg=List api=signer type=request metadata="{\"remote\":\"NA\",\"local\":\"NA\",\"scheme\":\"ipc\",\"User-Agent\":\"\",\"Origin\":\"\"}"
time=2024-01-24T13:43:51.981-03:00 level=INFO msg=List api=signer type=response data=[0x65BbACef21EC52B240538497441B9DfF24BF839a]
time=2024-01-24T13:43:51.982-03:00 level=INFO msg=SignTransaction api=signer type=request metadata="{\"remote\":\"NA\",\"local\":\"NA\",\"scheme\":\"ipc\",\"User-Agent\":\"\",\"Origin\":\"\"}" tx="{\"from\":\"0x65BbACef21EC52B240538497441B9DfF24BF839a\",\"to\":\"0x2854fA282364A80f979b2024259AEB16b9e9348C\",\"gas\":\"0x5208\",\"gasPrice\":\"0x3b9aca00\",\"maxFeePerGas\":null,\"maxPriorityFeePerGas\":null,\"value\":\"0x2710\",\"nonce\":\"0x4\",\"data\":\"0x\",\"chainId\":\"0x1d9d0d8\"}" methodSelector=<nil>
time=2024-01-24T13:43:54.717-03:00 level=INFO msg=SignTransaction api=signer type=response data=f86904843b9aca00825208942854fa282364a80f979b2024259aeb16b9e9348c822710808403b3a1d4a0e391b59ac12038239fadf2e58a08c55d59eac0909285a5ba74702d89f5c4e419a03c04eda170d38528a9e85d51a84a5853db8b7b7c79e0701088da26ad862be494 error=<nil>
time=2024-01-24T13:44:27.702-03:00 level=INFO msg=List api=signer type=request metadata="{\"remote\":\"NA\",\"local\":\"NA\",\"scheme\":\"ipc\",\"User-Agent\":\"\",\"Origin\":\"\"}"
time=2024-01-24T13:44:30.398-03:00 level=INFO msg=List api=signer type=response data=[0x65BbACef21EC52B240538497441B9DfF24BF839a]
time=2024-01-24T13:44:30.399-03:00 level=INFO msg=SignTransaction api=signer type=request metadata="{\"remote\":\"NA\",\"local\":\"NA\",\"scheme\":\"ipc\",\"User-Agent\":\"\",\"Origin\":\"\"}" tx="{\"from\":\"0x65BbACef21EC52B240538497441B9DfF24BF839a\",\"to\":\"0x2854fA282364A80f979b2024259AEB16b9e9348C\",\"gas\":\"0x5208\",\"gasPrice\":\"0x3b9aca00\",\"maxFeePerGas\":null,\"maxPriorityFeePerGas\":null,\"value\":\"0x2710\",\"nonce\":\"0x5\",\"data\":\"0x\",\"chainId\":\"0x1d9d0d8\"}" methodSelector=<nil>
time=2024-01-24T13:44:33.354-03:00 level=INFO msg=SignTransaction api=signer type=response data=f86905843b9aca00825208942854fa282364a80f979b2024259aeb16b9e9348c822710808403b3a1d4a0a92123e2b798bdf5eb2877f7f58b11aaad6139d65429acaf4609272ba3bd65f8a0275197101937c00965fc4ea566327690eb910af0290326b7af60ed4bf2505298 error=<nil>
time=2024-01-24T13:45:17.407-03:00 level=INFO msg=List api=signer type=request metadata="{\"remote\":\"NA\",\"local\":\"NA\",\"scheme\":\"ipc\",\"User-Agent\":\"\",\"Origin\":\"\"}"
time=2024-01-24T13:45:19.614-03:00 level=INFO msg=List api=signer type=response data=[0x65BbACef21EC52B240538497441B9DfF24BF839a]
time=2024-01-24T13:45:19.616-03:00 level=INFO msg=SignTransaction api=signer type=request metadata="{\"remote\":\"NA\",\"local\":\"NA\",\"scheme\":\"ipc\",\"User-Agent\":\"\",\"Origin\":\"\"}" tx="{\"from\":\"0x65BbACef21EC52B240538497441B9DfF24BF839a\",\"to\":\"0x2854fA282364A80f979b2024259AEB16b9e9348C\",\"gas\":\"0x5208\",\"gasPrice\":\"0x3b9aca00\",\"maxFeePerGas\":null,\"maxPriorityFeePerGas\":null,\"value\":\"0x2710\",\"nonce\":\"0x6\",\"data\":\"0x\",\"chainId\":\"0x1d9d0d8\"}" methodSelector=<nil>
time=2024-01-24T13:45:22.088-03:00 level=INFO msg=SignTransaction api=signer type=response data=f86906843b9aca00825208942854fa282364a80f979b2024259aeb16b9e9348c822710808403b3a1d3a0b274533e80571d698338a363c1eeabc996facb6a3fb2b1b97f5fa6148522595ca00a22df84a9a1bcd6faef4f64b7112e8862ea4606cbee1c2e2202b71d777327d8 error=<nil>
time=2024-01-24T13:55:50.937-03:00 level=INFO msg=List api=signer type=request metadata="{\"remote\":\"NA\",\"local\":\"NA\",\"scheme\":\"ipc\",\"User-Agent\":\"\",\"Origin\":\"\"}"
time=2024-01-24T13:55:52.817-03:00 level=INFO msg=List api=signer type=response data=[0x65BbACef21EC52B240538497441B9DfF24BF839a]
time=2024-01-24T13:55:52.818-03:00 level=INFO msg=SignTransaction api=signer type=request metadata="{\"remote\":\"NA\",\"local\":\"NA\",\"scheme\":\"ipc\",\"User-Agent\":\"\",\"Origin\":\"\"}" tx="{\"from\":\"0x65BbACef21EC52B240538497441B9DfF24BF839a\",\"to\":\"0x2854fA282364A80f979b2024259AEB16b9e9348C\",\"gas\":\"0x5208\",\"gasPrice\":\"0x3b9aca00\",\"maxFeePerGas\":null,\"maxPriorityFeePerGas\":null,\"value\":\"0x2710\",\"nonce\":\"0x7\",\"data\":\"0x\",\"chainId\":\"0x1d9d0d8\"}" methodSelector=<nil>
time=2024-01-24T13:55:56.399-03:00 level=INFO msg=SignTransaction api=signer type=response data=f86907843b9aca00825208942854fa282364a80f979b2024259aeb16b9e9348c822710808403b3a1d3a0a4ce72544ad5175fab78c1e4c233929078ef21144a8471f1be67b7ed9a3228ada077f80d2298497a47f241b88cbdf850d69a00081cabb7587417fed32b2d9d0e7d error=<nil>
time=2024-01-24T13:56:08.066-03:00 level=INFO msg=List api=signer type=request metadata="{\"remote\":\"NA\",\"local\":\"NA\",\"scheme\":\"ipc\",\"User-Agent\":\"\",\"Origin\":\"\"}"
time=2024-01-24T13:56:09.833-03:00 level=INFO msg=List api=signer type=response data=[0x65BbACef21EC52B240538497441B9DfF24BF839a]
time=2024-01-24T13:56:09.834-03:00 level=INFO msg=SignTransaction api=signer type=request metadata="{\"remote\":\"NA\",\"local\":\"NA\",\"scheme\":\"ipc\",\"User-Agent\":\"\",\"Origin\":\"\"}" tx="{\"from\":\"0x65BbACef21EC52B240538497441B9DfF24BF839a\",\"to\":\"0x2854fA282364A80f979b2024259AEB16b9e9348C\",\"gas\":\"0x5208\",\"gasPrice\":\"0x3b9aca00\",\"maxFeePerGas\":null,\"maxPriorityFeePerGas\":null,\"value\":\"0x2710\",\"nonce\":\"0x8\",\"data\":\"0x\",\"chainId\":\"0x1d9d0d8\"}" methodSelector=<nil>
time=2024-01-24T13:56:12.043-03:00 level=INFO msg=SignTransaction api=signer type=response data=f86908843b9aca00825208942854fa282364a80f979b2024259aeb16b9e9348c822710808403b3a1d3a026b134f6676dc9959988538cd451254a9892310f80a6d19673e87f8882c5ddeea02ad542cc97045564d70427621aa295e34ab00077a3426bc3871217100cd511ca error=<nil>
time=2024-01-24T13:56:19.714-03:00 level=INFO msg=List api=signer type=request metadata="{\"remote\":\"NA\",\"local\":\"NA\",\"scheme\":\"ipc\",\"User-Agent\":\"\",\"Origin\":\"\"}"
time=2024-01-24T13:56:23.113-03:00 level=INFO msg=List api=signer type=response data=[0x65BbACef21EC52B240538497441B9DfF24BF839a]
time=2024-01-24T13:56:23.114-03:00 level=INFO msg=SignTransaction api=signer type=request metadata="{\"remote\":\"NA\",\"local\":\"NA\",\"scheme\":\"ipc\",\"User-Agent\":\"\",\"Origin\":\"\"}" tx="{\"from\":\"0x65BbACef21EC52B240538497441B9DfF24BF839a\",\"to\":\"0x2854fA282364A80f979b2024259AEB16b9e9348C\",\"gas\":\"0x5208\",\"gasPrice\":\"0x3b9aca00\",\"maxFeePerGas\":null,\"maxPriorityFeePerGas\":null,\"value\":\"0x2710\",\"nonce\":\"0x9\",\"data\":\"0x\",\"chainId\":\"0x1d9d0d8\"}" methodSelector=<nil>
time=2024-01-24T13:56:25.557-03:00 level=INFO msg=SignTransaction api=signer type=response data=f86909843b9aca00825208942854fa282364a80f979b2024259aeb16b9e9348c822710808403b3a1d3a0c4189ef3e14f33293362ba900f90e00069de629fd55267c49efa563288f044d4a017c6c145add51a81129c280bc8514b21a044011c9b7614ded43b8dc438ad07c2 error=<nil>
time=2024-01-25T10:12:58.665-03:00 level=INFO msg=Configured api=signer "audit log"=audit.log
time=2024-01-25T10:13:31.523-03:00 level=INFO msg=Version api=signer type=request metadata="{\"remote\":\"NA\",\"local\":\"NA\",\"scheme\":\"ipc\",\"User-Agent\":\"\",\"Origin\":\"\"}"
time=2024-01-25T10:13:31.523-03:00 level=INFO msg=Version api=signer type=response data=6.1.0 error=<nil>
time=2024-01-25T10:15:06.190-03:00 level=INFO msg=List api=signer type=request metadata="{\"remote\":\"NA\",\"local\":\"NA\",\"scheme\":\"ipc\",\"User-Agent\":\"\",\"Origin\":\"\"}"
time=2024-01-25T10:15:11.190-03:00 level=INFO msg=List api=signer type=response data=[0x65BbACef21EC52B240538497441B9DfF24BF839a]
time=2024-01-25T10:15:11.196-03:00 level=INFO msg=SignTransaction api=signer type=request metadata="{\"remote\":\"NA\",\"local\":\"NA\",\"scheme\":\"ipc\",\"User-Agent\":\"\",\"Origin\":\"\"}" tx="{\"from\":\"0x65BbACef21EC52B240538497441B9DfF24BF839a\",\"to\":\"0x2854fA282364A80f979b2024259AEB16b9e9348C\",\"gas\":\"0x5208\",\"gasPrice\":\"0x3b9aca00\",\"maxFeePerGas\":null,\"maxPriorityFeePerGas\":null,\"value\":\"0x2710\",\"nonce\":\"0xa\",\"data\":\"0x\",\"chainId\":\"0x1d9d0d8\"}" methodSelector=<nil>
time=2024-01-25T10:15:43.332-03:00 level=INFO msg=SignTransaction api=signer type=response data=f8690a843b9aca00825208942854fa282364a80f979b2024259aeb16b9e9348c822710808403b3a1d3a08b906b5db7d8aaf08bb5f0fbe143b720054d7e5e69b6c96f6e9c9d9e34f11c62a01865b08373e25eca322910551b3ce2d680038bc697c00e03f2d33ca40446c438 error=<nil>
time=2024-01-25T10:17:55.432-03:00 level=INFO msg=List api=signer type=request metadata="{\"remote\":\"NA\",\"local\":\"NA\",\"scheme\":\"ipc\",\"User-Agent\":\"\",\"Origin\":\"\"}"
time=2024-01-25T10:17:59.415-03:00 level=INFO msg=List api=signer type=response data=[0x65BbACef21EC52B240538497441B9DfF24BF839a]
time=2024-01-25T10:17:59.419-03:00 level=INFO msg=SignTransaction api=signer type=request metadata="{\"remote\":\"NA\",\"local\":\"NA\",\"scheme\":\"ipc\",\"User-Agent\":\"\",\"Origin\":\"\"}" tx="{\"from\":\"0x65BbACef21EC52B240538497441B9DfF24BF839a\",\"to\":\"0x2854fA282364A80f979b2024259AEB16b9e9348C\",\"gas\":\"0x5208\",\"gasPrice\":\"0x3b9aca00\",\"maxFeePerGas\":null,\"maxPriorityFeePerGas\":null,\"value\":\"0x2710\",\"nonce\":\"0xb\",\"data\":\"0x\",\"chainId\":\"0x1d9d0d8\"}" methodSelector=<nil>
time=2024-01-25T10:18:06.118-03:00 level=INFO msg=SignTransaction api=signer type=response data=f8690b843b9aca00825208942854fa282364a80f979b2024259aeb16b9e9348c822710808403b3a1d3a0955b079826773ce2ecf40af8b0c5785c94f521ffede1747dc0a90b88c2f339eda03459f75f5d06b02a8f02209dbaa067db42256ff633c5b0e09b21745026a1c165 error=<nil>
time=2024-01-25T10:18:20.058-03:00 level=INFO msg=List api=signer type=request metadata="{\"remote\":\"NA\",\"local\":\"NA\",\"scheme\":\"ipc\",\"User-Agent\":\"\",\"Origin\":\"\"}"
time=2024-01-25T10:18:21.991-03:00 level=INFO msg=List api=signer type=response data=[0x65BbACef21EC52B240538497441B9DfF24BF839a]
time=2024-01-25T10:18:21.995-03:00 level=INFO msg=SignTransaction api=signer type=request metadata="{\"remote\":\"NA\",\"local\":\"NA\",\"scheme\":\"ipc\",\"User-Agent\":\"\",\"Origin\":\"\"}" tx="{\"from\":\"0x65BbACef21EC52B240538497441B9DfF24BF839a\",\"to\":\"0x2854fA282364A80f979b2024259AEB16b9e9348C\",\"gas\":\"0x5208\",\"gasPrice\":\"0x3b9aca00\",\"maxFeePerGas\":null,\"maxPriorityFeePerGas\":null,\"value\":\"0x2710\",\"nonce\":\"0xc\",\"data\":\"0x\",\"chainId\":\"0x1d9d0d8\"}" methodSelector=<nil>
time=2024-01-25T10:18:24.563-03:00 level=INFO msg=SignTransaction api=signer type=response data=f8690c843b9aca00825208942854fa282364a80f979b2024259aeb16b9e9348c822710808403b3a1d4a0ac8b8b5ae13fa2d8f323ce4c054763b44e95c4f00ab77dfc6a6725e05c285f36a01d0054765b3dbf03dcea3c737f74030886de00d5ccd0d5506dccabe41fb339cf error=<nil>
time=2024-01-25T12:19:17.325-03:00 level=INFO msg=Configured api=signer "audit log"=audit.log
time=2024-01-25T12:47:25.228-03:00 level=INFO msg=Configured api=signer "audit log"=audit.log
time=2024-01-25T13:32:40.389-03:00 level=INFO msg=Configured api=signer "audit log"=audit.log
time=2024-01-25T13:34:59.168-03:00 level=INFO msg=Version api=signer type=request metadata="{\"remote\":\"NA\",\"local\":\"NA\",\"scheme\":\"ipc\",\"User-Agent\":\"\",\"Origin\":\"\"}"
time=2024-01-25T13:34:59.168-03:00 level=INFO msg=Version api=signer type=response data=6.1.0 error=<nil>
time=2024-01-25T13:35:13.573-03:00 level=INFO msg=List api=signer type=request metadata="{\"remote\":\"NA\",\"local\":\"NA\",\"scheme\":\"ipc\",\"User-Agent\":\"\",\"Origin\":\"\"}"
time=2024-01-25T13:35:17.205-03:00 level=INFO msg=List api=signer type=response data=[0x65BbACef21EC52B240538497441B9DfF24BF839a]
time=2024-01-25T13:35:17.206-03:00 level=INFO msg=SignTransaction api=signer type=request metadata="{\"remote\":\"NA\",\"local\":\"NA\",\"scheme\":\"ipc\",\"User-Agent\":\"\",\"Origin\":\"\"}" tx="{\"from\":\"0x65BbACef21EC52B240538497441B9DfF24BF839a\",\"to\":\"0x2854fA282364A80f979b2024259AEB16b9e9348C\",\"gas\":\"0x5208\",\"gasPrice\":\"0x3b9aca00\",\"maxFeePerGas\":null,\"maxPriorityFeePerGas\":null,\"value\":\"0x2710\",\"nonce\":\"0xd\",\"data\":\"0x\",\"chainId\":\"0x1d9d0d8\"}" methodSelector=<nil>
time=2024-01-25T13:35:23.595-03:00 level=INFO msg=SignTransaction api=signer type=response data=f8690d843b9aca00825208942854fa282364a80f979b2024259aeb16b9e9348c822710808403b3a1d4a0a03e5e830221ab211022ac5fff47f1b16af2e4f4824f404f2f28a032edc2cb23a065a1035929bd6ca4fba6f5e16258f9bb4c3e9ff2b39406041702cae6efee00ea error=<nil>
time=2024-01-25T13:39:18.529-03:00 level=INFO msg=List api=signer type=request metadata="{\"remote\":\"NA\",\"local\":\"NA\",\"scheme\":\"ipc\",\"User-Agent\":\"\",\"Origin\":\"\"}"
time=2024-01-25T13:39:20.897-03:00 level=INFO msg=List api=signer type=response data=[0x65BbACef21EC52B240538497441B9DfF24BF839a]
time=2024-01-25T13:39:20.898-03:00 level=INFO msg=SignTransaction api=signer type=request metadata="{\"remote\":\"NA\",\"local\":\"NA\",\"scheme\":\"ipc\",\"User-Agent\":\"\",\"Origin\":\"\"}" tx="{\"from\":\"0x65BbACef21EC52B240538497441B9DfF24BF839a\",\"to\":\"0x2854fA282364A80f979b2024259AEB16b9e9348C\",\"gas\":\"0x5208\",\"gasPrice\":\"0x3b9aca00\",\"maxFeePerGas\":null,\"maxPriorityFeePerGas\":null,\"value\":\"0x2710\",\"nonce\":\"0xe\",\"data\":\"0x\",\"chainId\":\"0x1d9d0d8\"}" methodSelector=<nil>
time=2024-01-25T13:39:23.476-03:00 level=INFO msg=SignTransaction api=signer type=response data=f8690e843b9aca00825208942854fa282364a80f979b2024259aeb16b9e9348c822710808403b3a1d3a0e6a2347b9fba2afcfd1c551723364acee6492527738ba0b9b1b01acb2c1f8a48a03ca9d1a5ba27eb1802577d3a0d09b6bee61a44f587c59332c90c41cad5fb8b74 error=<nil>
time=2024-01-25T13:40:18.642-03:00 level=INFO msg=List api=signer type=request metadata="{\"remote\":\"NA\",\"local\":\"NA\",\"scheme\":\"ipc\",\"User-Agent\":\"\",\"Origin\":\"\"}"
time=2024-01-25T13:40:20.266-03:00 level=INFO msg=List api=signer type=response data=[0x65BbACef21EC52B240538497441B9DfF24BF839a]
time=2024-01-25T13:40:20.267-03:00 level=INFO msg=SignTransaction api=signer type=request metadata="{\"remote\":\"NA\",\"local\":\"NA\",\"scheme\":\"ipc\",\"User-Agent\":\"\",\"Origin\":\"\"}" tx="{\"from\":\"0x65BbACef21EC52B240538497441B9DfF24BF839a\",\"to\":\"0x2854fA282364A80f979b2024259AEB16b9e9348C\",\"gas\":\"0x5208\",\"gasPrice\":\"0x3b9aca00\",\"maxFeePerGas\":null,\"maxPriorityFeePerGas\":null,\"value\":\"0x2710\",\"nonce\":\"0xf\",\"data\":\"0x\",\"chainId\":\"0x1d9d0d8\"}" methodSelector=<nil>
time=2024-01-25T13:40:22.759-03:00 level=INFO msg=SignTransaction api=signer type=response data=f8690f843b9aca00825208942854fa282364a80f979b2024259aeb16b9e9348c822710808403b3a1d3a0209181779b5cb6f975df7d85d94e35ed04d0f2d0874f014ef5f1aff4b8a82841a053159f7135f98a0d43b4bf4154a8f637bc4f0def79b3ef17de84c4faba5cca15 error=<nil>
time=2024-01-25T13:48:28.419-03:00 level=INFO msg=List api=signer type=request metadata="{\"remote\":\"NA\",\"local\":\"NA\",\"scheme\":\"ipc\",\"User-Agent\":\"\",\"Origin\":\"\"}"
time=2024-01-25T13:48:30.490-03:00 level=INFO msg=List api=signer type=response data=[0x65BbACef21EC52B240538497441B9DfF24BF839a]
time=2024-01-25T13:48:30.491-03:00 level=INFO msg=SignTransaction api=signer type=request metadata="{\"remote\":\"NA\",\"local\":\"NA\",\"scheme\":\"ipc\",\"User-Agent\":\"\",\"Origin\":\"\"}" tx="{\"from\":\"0x65BbACef21EC52B240538497441B9DfF24BF839a\",\"to\":\"0x2854fA282364A80f979b2024259AEB16b9e9348C\",\"gas\":\"0x5208\",\"gasPrice\":\"0x3b9aca00\",\"maxFeePerGas\":null,\"maxPriorityFeePerGas\":null,\"value\":\"0x2710\",\"nonce\":\"0x10\",\"data\":\"0x\",\"chainId\":\"0x1d9d0d8\"}" methodSelector=<nil>
time=2024-01-25T13:48:33.550-03:00 level=INFO msg=SignTransaction api=signer type=response data=f86910843b9aca00825208942854fa282364a80f979b2024259aeb16b9e9348c822710808403b3a1d4a08b41db308d811c63405a9535c154a9e6482220c0b39972bd3566c1fe7088f064a0272e9d4dc03f2de4001a8b1ebaa0764903c4976f66fb66c0c6f7310d538b749f error=<nil>
time=2024-01-25T13:49:09.515-03:00 level=INFO msg=List api=signer type=request metadata="{\"remote\":\"NA\",\"local\":\"NA\",\"scheme\":\"ipc\",\"User-Agent\":\"\",\"Origin\":\"\"}"
time=2024-01-25T13:49:11.291-03:00 level=INFO msg=List api=signer type=response data=[0x65BbACef21EC52B240538497441B9DfF24BF839a]
time=2024-01-25T13:49:11.292-03:00 level=INFO msg=SignTransaction api=signer type=request metadata="{\"remote\":\"NA\",\"local\":\"NA\",\"scheme\":\"ipc\",\"User-Agent\":\"\",\"Origin\":\"\"}" tx="{\"from\":\"0x65BbACef21EC52B240538497441B9DfF24BF839a\",\"to\":\"0x2854fA282364A80f979b2024259AEB16b9e9348C\",\"gas\":\"0x5208\",\"gasPrice\":\"0x3b9aca00\",\"maxFeePerGas\":null,\"maxPriorityFeePerGas\":null,\"value\":\"0x2710\",\"nonce\":\"0x11\",\"data\":\"0x\",\"chainId\":\"0x1d9d0d8\"}" methodSelector=<nil>
time=2024-01-25T13:49:14.068-03:00 level=INFO msg=SignTransaction api=signer type=response data=f86911843b9aca00825208942854fa282364a80f979b2024259aeb16b9e9348c822710808403b3a1d4a0a120c27fde7ecdbb5b43d83e2d9e9075b0046c025936864591fbcd77fe13bed3a046c967e93238ba1f4c481211dc93540614492521bcd926f6fc0c48433082da15 error=<nil>
time=2024-01-25T13:49:35.466-03:00 level=INFO msg=Configured api=signer "audit log"=audit.log
time=2024-01-25T13:54:09.841-03:00 level=INFO msg=List api=signer type=request metadata="{\"remote\":\"NA\",\"local\":\"NA\",\"scheme\":\"ipc\",\"User-Agent\":\"\",\"Origin\":\"\"}"
time=2024-01-25T13:54:12.608-03:00 level=INFO msg=List api=signer type=response data=[0x65BbACef21EC52B240538497441B9DfF24BF839a]
time=2024-01-25T13:54:12.609-03:00 level=INFO msg=SignTransaction api=signer type=request metadata="{\"remote\":\"NA\",\"local\":\"NA\",\"scheme\":\"ipc\",\"User-Agent\":\"\",\"Origin\":\"\"}" tx="{\"from\":\"0x65BbACef21EC52B240538497441B9DfF24BF839a\",\"to\":\"0x2854fA282364A80f979b2024259AEB16b9e9348C\",\"gas\":\"0x5208\",\"gasPrice\":\"0x3b9aca00\",\"maxFeePerGas\":null,\"maxPriorityFeePerGas\":null,\"value\":\"0x2710\",\"nonce\":\"0x12\",\"data\":\"0x\",\"chainId\":\"0x1d9d0d8\"}" methodSelector=<nil>
time=2024-01-25T13:56:22.411-03:00 level=INFO msg=Configured api=signer "audit log"=audit.log
time=2024-01-25T13:56:57.763-03:00 level=INFO msg=List api=signer type=request metadata="{\"remote\":\"NA\",\"local\":\"NA\",\"scheme\":\"ipc\",\"User-Agent\":\"\",\"Origin\":\"\"}"
time=2024-01-25T13:56:59.739-03:00 level=INFO msg=List api=signer type=response data=[0x65BbACef21EC52B240538497441B9DfF24BF839a]
time=2024-01-25T13:56:59.740-03:00 level=INFO msg=SignTransaction api=signer type=request metadata="{\"remote\":\"NA\",\"local\":\"NA\",\"scheme\":\"ipc\",\"User-Agent\":\"\",\"Origin\":\"\"}" tx="{\"from\":\"0x65BbACef21EC52B240538497441B9DfF24BF839a\",\"to\":\"0x2854fA282364A80f979b2024259AEB16b9e9348C\",\"gas\":\"0x5208\",\"gasPrice\":\"0x3b9aca00\",\"maxFeePerGas\":null,\"maxPriorityFeePerGas\":null,\"value\":\"0x2710\",\"nonce\":\"0x12\",\"data\":\"0x\",\"chainId\":\"0x1d9d0d8\"}" methodSelector=<nil>
time=2024-01-25T13:57:32.597-03:00 level=INFO msg=Configured api=signer "audit log"=audit.log
time=2024-01-25T13:59:24.950-03:00 level=INFO msg=List api=signer type=request metadata="{\"remote\":\"NA\",\"local\":\"NA\",\"scheme\":\"ipc\",\"User-Agent\":\"\",\"Origin\":\"\"}"
time=2024-01-25T13:59:28.973-03:00 level=INFO msg=List api=signer type=response data=[0x65BbACef21EC52B240538497441B9DfF24BF839a]
time=2024-01-25T13:59:28.974-03:00 level=INFO msg=SignTransaction api=signer type=request metadata="{\"remote\":\"NA\",\"local\":\"NA\",\"scheme\":\"ipc\",\"User-Agent\":\"\",\"Origin\":\"\"}" tx="{\"from\":\"0x65BbACef21EC52B240538497441B9DfF24BF839a\",\"to\":\"0x2854fA282364A80f979b2024259AEB16b9e9348C\",\"gas\":\"0x5208\",\"gasPrice\":\"0x3b9aca00\",\"maxFeePerGas\":null,\"maxPriorityFeePerGas\":null,\"value\":\"0x2710\",\"nonce\":\"0x12\",\"data\":\"0x\",\"chainId\":\"0x1d9d0d8\"}" methodSelector=<nil>
time=2024-01-25T13:59:31.969-03:00 level=INFO msg=SignTransaction api=signer type=response data=f86912843b9aca00825208942854fa282364a80f979b2024259aeb16b9e9348c822710808403b3a1d3a006b742b562b543085da4250646d005bb1ba6aef8c324ed25b6f3e607a3a5d3eca05253167b9d59c15670b53e3e3683eed17fad6113ffd38e65c59502680582361b error=<nil>
time=2024-01-25T14:00:06.342-03:00 level=INFO msg=List api=signer type=request metadata="{\"remote\":\"NA\",\"local\":\"NA\",\"scheme\":\"ipc\",\"User-Agent\":\"\",\"Origin\":\"\"}"
time=2024-01-25T14:00:11.246-03:00 level=INFO msg=List api=signer type=response data=[0x65BbACef21EC52B240538497441B9DfF24BF839a]
time=2024-01-25T14:00:11.247-03:00 level=INFO msg=SignTransaction api=signer type=request metadata="{\"remote\":\"NA\",\"local\":\"NA\",\"scheme\":\"ipc\",\"User-Agent\":\"\",\"Origin\":\"\"}" tx="{\"from\":\"0x65BbACef21EC52B240538497441B9DfF24BF839a\",\"to\":\"0x2854fA282364A80f979b2024259AEB16b9e9348C\",\"gas\":\"0x5208\",\"gasPrice\":\"0x3b9aca00\",\"maxFeePerGas\":null,\"maxPriorityFeePerGas\":null,\"value\":\"0x2710\",\"nonce\":\"0x13\",\"data\":\"0x\",\"chainId\":\"0x1d9d0d8\"}" methodSelector=<nil>
time=2024-01-25T14:00:13.545-03:00 level=INFO msg=SignTransaction api=signer type=response data=f86913843b9aca00825208942854fa282364a80f979b2024259aeb16b9e9348c822710808403b3a1d4a0059ee73910ab21df46859f1d81fbe0dc3624d8f5eebb44fe222dbb8af8cde862a012474c1dfd59964087afaf4b9da7f9bd043a13c504662ef479d6a526a49b024a error=<nil>
time=2024-01-25T14:01:50.400-03:00 level=INFO msg=List api=signer type=request metadata="{\"remote\":\"NA\",\"local\":\"NA\",\"scheme\":\"ipc\",\"User-Agent\":\"\",\"Origin\":\"\"}"
time=2024-01-25T14:01:52.191-03:00 level=INFO msg=List api=signer type=response data=[0x65BbACef21EC52B240538497441B9DfF24BF839a]
time=2024-01-25T14:01:52.192-03:00 level=INFO msg=SignTransaction api=signer type=request metadata="{\"remote\":\"NA\",\"local\":\"NA\",\"scheme\":\"ipc\",\"User-Agent\":\"\",\"Origin\":\"\"}" tx="{\"from\":\"0x65BbACef21EC52B240538497441B9DfF24BF839a\",\"to\":\"0x2854fA282364A80f979b2024259AEB16b9e9348C\",\"gas\":\"0x5208\",\"gasPrice\":\"0x3b9aca00\",\"maxFeePerGas\":null,\"maxPriorityFeePerGas\":null,\"value\":\"0x2710\",\"nonce\":\"0x14\",\"data\":\"0x\",\"chainId\":\"0x1d9d0d8\"}" methodSelector=<nil>
time=2024-01-25T14:01:54.449-03:00 level=INFO msg=SignTransaction api=signer type=response data=f86914843b9aca00825208942854fa282364a80f979b2024259aeb16b9e9348c822710808403b3a1d4a0a4e08e680f11744c0acbeb73d73f0f9833f621878909994f81e94bca2885de78a02892e13e505a5b501b35911f280b1e2b21ab904563071484777035e9ad0a22e4 error=<nil>
time=2024-01-25T14:02:14.432-03:00 level=INFO msg=List api=signer type=request metadata="{\"remote\":\"NA\",\"local\":\"NA\",\"scheme\":\"ipc\",\"User-Agent\":\"\",\"Origin\":\"\"}"
time=2024-01-25T14:02:15.976-03:00 level=INFO msg=List api=signer type=response data=[0x65BbACef21EC52B240538497441B9DfF24BF839a]
time=2024-01-25T14:02:15.977-03:00 level=INFO msg=SignTransaction api=signer type=request metadata="{\"remote\":\"NA\",\"local\":\"NA\",\"scheme\":\"ipc\",\"User-Agent\":\"\",\"Origin\":\"\"}" tx="{\"from\":\"0x65BbACef21EC52B240538497441B9DfF24BF839a\",\"to\":\"0x2854fA282364A80f979b2024259AEB16b9e9348C\",\"gas\":\"0x5208\",\"gasPrice\":\"0x3b9aca00\",\"maxFeePerGas\":null,\"maxPriorityFeePerGas\":null,\"value\":\"0x2710\",\"nonce\":\"0x15\",\"data\":\"0x\",\"chainId\":\"0x1d9d0d8\"}" methodSelector=<nil>
time=2024-01-25T14:02:17.918-03:00 level=INFO msg=SignTransaction api=signer type=response data=f86915843b9aca00825208942854fa282364a80f979b2024259aeb16b9e9348c822710808403b3a1d4a095075d1842dc84060497a43f2c41e0016faa6e4480bce0a8a3696d1ff30c4971a03d6b7c5b53ee98227d07b07a07745673ed4f4ccd48a51cb52b13a4555a48481d error=<nil>
time=2024-01-25T14:03:35.257-03:00 level=INFO msg=List api=signer type=request metadata="{\"remote\":\"NA\",\"local\":\"NA\",\"scheme\":\"ipc\",\"User-Agent\":\"\",\"Origin\":\"\"}"
time=2024-01-25T14:03:36.697-03:00 level=INFO msg=List api=signer type=response data=[0x65BbACef21EC52B240538497441B9DfF24BF839a]
time=2024-01-25T14:03:36.698-03:00 level=INFO msg=SignTransaction api=signer type=request metadata="{\"remote\":\"NA\",\"local\":\"NA\",\"scheme\":\"ipc\",\"User-Agent\":\"\",\"Origin\":\"\"}" tx="{\"from\":\"0x65BbACef21EC52B240538497441B9DfF24BF839a\",\"to\":\"0x2854fA282364A80f979b2024259AEB16b9e9348C\",\"gas\":\"0x5208\",\"gasPrice\":\"0x3b9aca00\",\"maxFeePerGas\":null,\"maxPriorityFeePerGas\":null,\"value\":\"0x2710\",\"nonce\":\"0x16\",\"data\":\"0x\",\"chainId\":\"0x1d9d0d8\"}" methodSelector=<nil>
time=2024-01-25T14:03:38.871-03:00 level=INFO msg=SignTransaction api=signer type=response data=f86916843b9aca00825208942854fa282364a80f979b2024259aeb16b9e9348c822710808403b3a1d3a05ff0e6963bc26f35f178fce79e8b865da8d30c5054ac110a1281895a305e84e5a0767acaed02d8dd8f94d749db42497fd1ae5050af6fb387855be43809899f9800 error=<nil>
time=2024-01-25T14:04:43.627-03:00 level=INFO msg=List api=signer type=request metadata="{\"remote\":\"NA\",\"local\":\"NA\",\"scheme\":\"ipc\",\"User-Agent\":\"\",\"Origin\":\"\"}"
time=2024-01-25T14:04:45.362-03:00 level=INFO msg=List api=signer type=response data=[0x65BbACef21EC52B240538497441B9DfF24BF839a]
time=2024-01-25T14:04:45.363-03:00 level=INFO msg=SignTransaction api=signer type=request metadata="{\"remote\":\"NA\",\"local\":\"NA\",\"scheme\":\"ipc\",\"User-Agent\":\"\",\"Origin\":\"\"}" tx="{\"from\":\"0x65BbACef21EC52B240538497441B9DfF24BF839a\",\"to\":\"0x2854fA282364A80f979b2024259AEB16b9e9348C\",\"gas\":\"0x5208\",\"gasPrice\":\"0x3b9aca00\",\"maxFeePerGas\":null,\"maxPriorityFeePerGas\":null,\"value\":\"0x2710\",\"nonce\":\"0x17\",\"data\":\"0x\",\"chainId\":\"0x1d9d0d8\"}" methodSelector=<nil>
time=2024-01-25T14:04:47.431-03:00 level=INFO msg=SignTransaction api=signer type=response data=f86917843b9aca00825208942854fa282364a80f979b2024259aeb16b9e9348c822710808403b3a1d4a05ab699354a6fc0331dec38a4d94438aa9cc119c2c57a7c13d20efbe2f329a47ba05d6c557de03584eccb65f651b89d0620cd4dcce540bdd9ffdbb78f3e79ebffe3 error=<nil>
time=2024-01-25T14:05:36.755-03:00 level=INFO msg=List api=signer type=request metadata="{\"remote\":\"NA\",\"local\":\"NA\",\"scheme\":\"ipc\",\"User-Agent\":\"\",\"Origin\":\"\"}"
time=2024-01-25T14:05:38.443-03:00 level=INFO msg=List api=signer type=response data=[0x65BbACef21EC52B240538497441B9DfF24BF839a]
time=2024-01-25T14:05:38.444-03:00 level=INFO msg=SignTransaction api=signer type=request metadata="{\"remote\":\"NA\",\"local\":\"NA\",\"scheme\":\"ipc\",\"User-Agent\":\"\",\"Origin\":\"\"}" tx="{\"from\":\"0x65BbACef21EC52B240538497441B9DfF24BF839a\",\"to\":\"0x2854fA282364A80f979b2024259AEB16b9e9348C\",\"gas\":\"0x5208\",\"gasPrice\":\"0x3b9aca00\",\"maxFeePerGas\":null,\"maxPriorityFeePerGas\":null,\"value\":\"0x2710\",\"nonce\":\"0x18\",\"data\":\"0x\",\"chainId\":\"0x1d9d0d8\"}" methodSelector=<nil>
time=2024-01-25T14:05:41.255-03:00 level=INFO msg=SignTransaction api=signer type=response data=f86918843b9aca00825208942854fa282364a80f979b2024259aeb16b9e9348c822710808403b3a1d3a0fbf82c715c627e18b8afabfb36b8bf536c64881fa622d363c01cc04ba876d622a0341d81f36ef6b955951dcee627b68f3b587226332bc2ad3dce1e87b7eca7e140 error=<nil>
time=2024-01-25T14:06:09.204-03:00 level=INFO msg=List api=signer type=request metadata="{\"remote\":\"NA\",\"local\":\"NA\",\"scheme\":\"ipc\",\"User-Agent\":\"\",\"Origin\":\"\"}"
time=2024-01-25T14:06:10.732-03:00 level=INFO msg=List api=signer type=response data=[0x65BbACef21EC52B240538497441B9DfF24BF839a]
time=2024-01-25T14:06:10.732-03:00 level=INFO msg=SignTransaction api=signer type=request metadata="{\"remote\":\"NA\",\"local\":\"NA\",\"scheme\":\"ipc\",\"User-Agent\":\"\",\"Origin\":\"\"}" tx="{\"from\":\"0x65BbACef21EC52B240538497441B9DfF24BF839a\",\"to\":\"0x2854fA282364A80f979b2024259AEB16b9e9348C\",\"gas\":\"0x5208\",\"gasPrice\":\"0x3b9aca00\",\"maxFeePerGas\":null,\"maxPriorityFeePerGas\":null,\"value\":\"0x2710\",\"nonce\":\"0x19\",\"data\":\"0x\",\"chainId\":\"0x1d9d0d8\"}" methodSelector=<nil>
time=2024-01-25T14:06:13.139-03:00 level=INFO msg=SignTransaction api=signer type=response data=f86919843b9aca00825208942854fa282364a80f979b2024259aeb16b9e9348c822710808403b3a1d4a0254f2acfb4c20af659eb5dc994d2087e478210f195160125a35e7ba3721e6475a0761f525b979fc67aa72e259ac94b77823476d06e824ffc4ab62aff093873c9fc error=<nil>
time=2024-01-25T14:07:33.141-03:00 level=INFO msg=List api=signer type=request metadata="{\"remote\":\"NA\",\"local\":\"NA\",\"scheme\":\"ipc\",\"User-Agent\":\"\",\"Origin\":\"\"}"
time=2024-01-25T14:07:34.493-03:00 level=INFO msg=List api=signer type=response data=[0x65BbACef21EC52B240538497441B9DfF24BF839a]
time=2024-01-25T14:07:34.494-03:00 level=INFO msg=SignTransaction api=signer type=request metadata="{\"remote\":\"NA\",\"local\":\"NA\",\"scheme\":\"ipc\",\"User-Agent\":\"\",\"Origin\":\"\"}" tx="{\"from\":\"0x65BbACef21EC52B240538497441B9DfF24BF839a\",\"to\":\"0x2854fA282364A80f979b2024259AEB16b9e9348C\",\"gas\":\"0x5208\",\"gasPrice\":\"0x3b9aca00\",\"maxFeePerGas\":null,\"maxPriorityFeePerGas\":null,\"value\":\"0x2710\",\"nonce\":\"0x1a\",\"data\":\"0x\",\"chainId\":\"0x1d9d0d8\"}" methodSelector=<nil>
time=2024-01-25T14:07:36.460-03:00 level=INFO msg=SignTransaction api=signer type=response data=f8691a843b9aca00825208942854fa282364a80f979b2024259aeb16b9e9348c822710808403b3a1d3a02589dede93a8bf648985d72680e7e1672c50c157e88f29cd5ac476e6ad376287a03b9e7f0afca57b6f70194c6061e641d2a4c37b6f317b88ef3de12845f649bc0e error=<nil>
time=2024-01-25T14:07:50.103-03:00 level=INFO msg=Configured api=signer "audit log"=audit.log
time=2024-01-25T14:11:57.265-03:00 level=INFO msg=List api=signer type=request metadata="{\"remote\":\"NA\",\"local\":\"NA\",\"scheme\":\"ipc\",\"User-Agent\":\"\",\"Origin\":\"\"}"
time=2024-01-25T14:11:59.097-03:00 level=INFO msg=List api=signer type=response data=[0x65BbACef21EC52B240538497441B9DfF24BF839a]
time=2024-01-25T14:11:59.098-03:00 level=INFO msg=SignTransaction api=signer type=request metadata="{\"remote\":\"NA\",\"local\":\"NA\",\"scheme\":\"ipc\",\"User-Agent\":\"\",\"Origin\":\"\"}" tx="{\"from\":\"0x65BbACef21EC52B240538497441B9DfF24BF839a\",\"to\":\"0x2854fA282364A80f979b2024259AEB16b9e9348C\",\"gas\":\"0x5208\",\"gasPrice\":\"0x3b9aca00\",\"maxFeePerGas\":null,\"maxPriorityFeePerGas\":null,\"value\":\"0x2710\",\"nonce\":\"0x1b\",\"data\":\"0x\",\"chainId\":\"0x1d9d0d8\"}" methodSelector=<nil>
time=2024-01-25T14:12:01.437-03:00 level=INFO msg=SignTransaction api=signer type=response data=f8691b843b9aca00825208942854fa282364a80f979b2024259aeb16b9e9348c822710808403b3a1d4a09404de0e064cec198582ba15db96016d107843aa917f6881423e153de2019276a051a8aa21950f578cb5dea64ab050095a4787d4791b4c7d02a9f51674a7973cf6 error=<nil>
time=2024-01-25T14:12:27.210-03:00 level=INFO msg=List api=signer type=request metadata="{\"remote\":\"NA\",\"local\":\"NA\",\"scheme\":\"ipc\",\"User-Agent\":\"\",\"Origin\":\"\"}"
time=2024-01-25T14:12:28.681-03:00 level=INFO msg=List api=signer type=response data=[0x65BbACef21EC52B240538497441B9DfF24BF839a]
time=2024-01-25T14:12:28.682-03:00 level=INFO msg=SignTransaction api=signer type=request metadata="{\"remote\":\"NA\",\"local\":\"NA\",\"scheme\":\"ipc\",\"User-Agent\":\"\",\"Origin\":\"\"}" tx="{\"from\":\"0x65BbACef21EC52B240538497441B9DfF24BF839a\",\"to\":\"0x2854fA282364A80f979b2024259AEB16b9e9348C\",\"gas\":\"0x5208\",\"gasPrice\":\"0x3b9aca00\",\"maxFeePerGas\":null,\"maxPriorityFeePerGas\":null,\"value\":\"0x2710\",\"nonce\":\"0x1c\",\"data\":\"0x\",\"chainId\":\"0x1d9d0d8\"}" methodSelector=<nil>
time=2024-01-25T14:12:30.683-03:00 level=INFO msg=SignTransaction api=signer type=response data=f8691c843b9aca00825208942854fa282364a80f979b2024259aeb16b9e9348c822710808403b3a1d3a0ecc7ebc2ec3754b4facbab6a8ebb00f53b7d80571c250cad7bee209481f793dba017adf723895dff446a4b8af7849755b35b892ea737932e469eeb20a792d0fd65 error=<nil>
time=2024-01-25T14:14:13.083-03:00 level=INFO msg=List api=signer type=request metadata="{\"remote\":\"NA\",\"local\":\"NA\",\"scheme\":\"ipc\",\"User-Agent\":\"\",\"Origin\":\"\"}"
time=2024-01-25T14:14:15.474-03:00 level=INFO msg=List api=signer type=response data=[0x65BbACef21EC52B240538497441B9DfF24BF839a]
time=2024-01-25T14:14:15.475-03:00 level=INFO msg=SignTransaction api=signer type=request metadata="{\"remote\":\"NA\",\"local\":\"NA\",\"scheme\":\"ipc\",\"User-Agent\":\"\",\"Origin\":\"\"}" tx="{\"from\":\"0x65BbACef21EC52B240538497441B9DfF24BF839a\",\"to\":\"0x2854fA282364A80f979b2024259AEB16b9e9348C\",\"gas\":\"0x5208\",\"gasPrice\":\"0x3b9aca00\",\"maxFeePerGas\":null,\"maxPriorityFeePerGas\":null,\"value\":\"0x2710\",\"nonce\":\"0x1d\",\"data\":\"0x\",\"chainId\":\"0x1d9d0d8\"}" methodSelector=<nil>
time=2024-01-25T14:14:17.668-03:00 level=INFO msg=SignTransaction api=signer type=response data=f8691d843b9aca00825208942854fa282364a80f979b2024259aeb16b9e9348c822710808403b3a1d4a031e91c45043c837e2ea31ff88444676c5ef2dda647d7c9c314c587377ff44fd4a0214fd3bc6b594424f82e442deb206781ad67673d69796b3178042c7df534ea1b error=<nil>
time=2024-01-25T14:14:25.083-03:00 level=INFO msg=List api=signer type=request metadata="{\"remote\":\"NA\",\"local\":\"NA\",\"scheme\":\"ipc\",\"User-Agent\":\"\",\"Origin\":\"\"}"
time=2024-01-25T14:14:26.682-03:00 level=INFO msg=List api=signer type=response data=[0x65BbACef21EC52B240538497441B9DfF24BF839a]
time=2024-01-25T14:14:26.683-03:00 level=INFO msg=SignTransaction api=signer type=request metadata="{\"remote\":\"NA\",\"local\":\"NA\",\"scheme\":\"ipc\",\"User-Agent\":\"\",\"Origin\":\"\"}" tx="{\"from\":\"0x65BbACef21EC52B240538497441B9DfF24BF839a\",\"to\":\"0x2854fA282364A80f979b2024259AEB16b9e9348C\",\"gas\":\"0x5208\",\"gasPrice\":\"0x3b9aca00\",\"maxFeePerGas\":null,\"maxPriorityFeePerGas\":null,\"value\":\"0x2710\",\"nonce\":\"0x1e\",\"data\":\"0x\",\"chainId\":\"0x1d9d0d8\"}" methodSelector=<nil>
time=2024-01-25T14:14:29.479-03:00 level=INFO msg=SignTransaction api=signer type=response data=f8691e843b9aca00825208942854fa282364a80f979b2024259aeb16b9e9348c822710808403b3a1d4a0496c45c2160911f361cadb3e923bfb4e094598d560c34479a7956b3491c8be90a034807bf57464e707f3ea76522203d2ce901aa3618795c92b960201d180896375 error=<nil>
